:020000020000FC
:1000000000E010E821E00ABB17BB04BB21BB79B3B9
:1000100070110C94780073B370110C94A20070B33B
:1000200070110C94CC000C940700E8E00E94FD01D4
:10003000909A0E94FD01909890B392709695690FE6
:10004000660FEA9599F7E8E00E94FD010000EA9545
:10005000D9F70C942B006D3EA9F0623FE9F0633FA5
:1000600001F1643F41F1653F59F1663F71F16F3F26
:1000700089F16E3EA1F16E3FB9F13EEF0E94C301DE
:100080000C940700E8E10E94FD01EA95D9F73AEFE8
:100090000E94C3010C9407003AEF0E94C3010C9424
:1000A0000700E8E10E94FD01EA95E1F73AEF0E94BE
:1000B000C3010C9407003AEF0E94C3010C9407009F
:1000C0003AEF0E94C3010C9407003AEF0E94C3016B
:1000D0000C9407003AEA0E94C3010C9407003EEE1C
:1000E0000E94C3010C9407000E94C3010C940700F6
:1000F000B1E07B1300100C94E700BB0F7B130010E2
:100100000C94F200BB0F7B1300100C94FD00BB0F8E
:100110007B1300100C940801BB0F7B1300100C9490
:100120001301BB0F7B1300100C941E01BB0F7B133C
:1001300000100C942901BB0F7B1300100C943401A8
:100140000C940700B1E07B1300100C943F01BB0F2F
:100150007B1300100C944A01BB0F7B1300100C940E
:100160005501BB0F7B1300100C946001BB0F7B1378
:1001700000100C946B01BB0F7B1300100C947601E4
:10018000BB0F7B1300100C948101BB0F7B1300107D
:100190000C948C010C940700B2E07B1300100C94BB
:1001A0001500B0E87B1300100C949701B6957B13F3
:1001B00000100C94A201B6957B1300100C94AD01B5
:1001C000B6957B1300100C94B8010C9407003CE129
:1001D0000E94C30130EF0E94C3013CE10E94C301B1
:1001E0000C94070032E30E94C30130EF0E94C30168
:1001F00032E30E94C3010C94070031E20E94C30164
:1002000030EF0E94C30131E20E94C3010C94070049
:1002100033E20E94C30130EF0E94C30133E20E9427
:10022000C3010C94070034E20E94C30130EF0E9426
:10023000C30134E20E94C3010C9407003BE20E9418
:10024000C30130EF0E94C3013BE20E94C3010C9442
:10025000070034E30E94C30130EF0E94C30134E37E
:100260000E94C3010C94070033E30E94C30130EFE6
:100270000E94C30133E30E94C3010C94070033E4DE
:100280000E94C30130EF0E94C30133E40E94C30106
:100290000C9407003BE30E94C30130EF0E94C301AE
:1002A0003BE30E94C3010C94070035E40E94C301A4
:1002B00030EF0E94C30135E40E94C3010C94070093
:1002C00036E10E94C30130EF0E94C30136E10E9473
:1002D000C3010C9407003EE10E94C30130EF0E946D
:1002E000C3013EE10E94C3010C94070036E20E9464
:1002F000C30130EF0E94C30136E20E94C3010C9497
:10030000070035E20E94C30130EF0E94C30135E2CD
:100310000E94C3010C9407003EE20E94C30130EF2B
:100320000E94C3013EE20E94C3010C94070036E321
:100330000E94C30130EF0E94C30136E30E94C30153
:100340000C9407003DE30E94C30130EF0E94C301FB
:100350003DE30E94C3010C9407003EE30E94C301E9
:1003600030EF0E94C3013EE30E94C3010C940700DA
:1003700036E40E94C30130EF0E94C30136E40E94BC
:10038000C3010C940700FFEF48E090980E94FD0124
:10039000C7980E94FD01909A0E94FD0190980E94CA
:1003A000FD01909A0000000000000000000038BB32
:1003B0000E94FD0100000000000000009098330F33
:1003C0004A9569F736953F270E94FD01909A0000F3
:1003D000000000000000000038BB0E94FD01909862
:1003E0000E94FD010000000000000000909A000043
:1003F000000000000000C79A08955DE05A95F1F7EB
:0204000008955D
:00000001FF
